{
 "cells": [
  {
   "cell_type": "code",
   "execution_count": null,
   "metadata": {},
   "outputs": [],
   "source": [
    "from web3 import HTTPProvider, Web3\n",
    "import json\n",
    "import time\n"
   ]
  },
  {
   "cell_type": "code",
   "execution_count": 905,
   "metadata": {},
   "outputs": [],
   "source": [
    "#連線到剛啟動的Ganache RPC Server\n",
    "web3 = Web3(HTTPProvider('http://127.0.0.1:7545'))\n",
    "# block = web3.eth.get_block('latest', full_transactions=False)\n",
    "block = web3.eth.get_block(100, full_transactions=False)\n",
    "#可以看到目前的區塊高度等資訊\n",
    "# print(web3.is_connected())\n",
    "# print(block)\n",
    "# 取得 Transaction Address\n",
    "transaction_address = block.transactions[0]\n",
    "# print(contract_address)\n",
    "# print(block.transactions[0])"
   ]
  },
  {
   "cell_type": "code",
   "execution_count": 906,
   "metadata": {},
   "outputs": [
    {
     "name": "stdout",
     "output_type": "stream",
     "text": [
      "0xdc66303738dF531B4Ee05BB6f3b716A2501C9A6B\n"
     ]
    }
   ],
   "source": [
    "receipt = web3.eth.get_transaction_receipt(transaction_address)\n",
    "# 0x136e09721e428f3b4685016efbe00b18eaf51a432138798176e51e2dedd5553f\n",
    "# web3.eth.get_block_number()\n",
    "# print(receipt)\n",
    "contract_address = (receipt.contractAddress)\n",
    "print(contract_address)"
   ]
  },
  {
   "cell_type": "code",
   "execution_count": 907,
   "metadata": {},
   "outputs": [
    {
     "name": "stdout",
     "output_type": "stream",
     "text": [
      "1337\n"
     ]
    }
   ],
   "source": [
    "wallet_address = web3.eth.accounts[0]\n",
    "balance_eth = web3.eth.get_balance(wallet_address)\n",
    "chainId = web3.eth.chain_id\n",
    "print(chainId)\n",
    "\n",
    "#user 1\n",
    "wallet_address = '0x65feE7Fa1d6356A288Fe1722B87C3EA1B567F14c'\n",
    "wallet_secret_key = '0x2ef0e69050795bc4657605ac3cb17548055460a727ae001f7db9cfc64a350491'\n",
    "# \n",
    "#user 1\n",
    "# wallet_address = '0x9AeB22933ABD0287120D754B8C80a0B055e63B2E'\n",
    "# wallet_secret_key = '0xe28c49c1ae2db0256d2d7a1872342ad20d95a3ca9fee4096686ae63e002ee346'\n",
    "\n",
    "#user 1\n",
    "# wallet_address = '0x50F6968f9067E6BcB6B9ff5b41dCb53543f2F0Ee'\n",
    "# wallet_secret_key = '0x6fef5af23b5ad47e2922128dfd33cc89763af1727f9d11e30c6523531e633dd4'"
   ]
  },
  {
   "cell_type": "code",
   "execution_count": 908,
   "metadata": {},
   "outputs": [],
   "source": [
    "#需要更新contract address 和 abi\n",
    "# contract = web3.eth.contract(address='0xDed229C9d6c76192b0D26212C9A2B5193C0D0e81', abi='[{\"inputs\":[{\"internalType\":\"string\",\"name\":\"name\",\"type\":\"string\"},{\"internalType\":\"string[]\",\"name\":\"optionNames\",\"type\":\"string[]\"},{\"internalType\":\"uint256\",\"name\":\"due\",\"type\":\"uint256\"}],\"stateMutability\":\"nonpayable\",\"type\":\"constructor\"},{\"inputs\":[],\"name\":\"dueDate\",\"outputs\":[{\"internalType\":\"uint256\",\"name\":\"\",\"type\":\"uint256\"}],\"stateMutability\":\"view\",\"type\":\"function\",\"constant\":true},{\"inputs\":[],\"name\":\"eventName\",\"outputs\":[{\"internalType\":\"string\",\"name\":\"\",\"type\":\"string\"}],\"stateMutability\":\"view\",\"type\":\"function\",\"constant\":true},{\"inputs\":[],\"name\":\"manager\",\"outputs\":[{\"internalType\":\"address\",\"name\":\"\",\"type\":\"address\"}],\"stateMutability\":\"view\",\"type\":\"function\",\"constant\":true},{\"inputs\":[{\"internalType\":\"uint256\",\"name\":\"\",\"type\":\"uint256\"}],\"name\":\"options\",\"outputs\":[{\"internalType\":\"uint256\",\"name\":\"id\",\"type\":\"uint256\"},{\"internalType\":\"string\",\"name\":\"name\",\"type\":\"string\"},{\"internalType\":\"uint256\",\"name\":\"count\",\"type\":\"uint256\"}],\"stateMutability\":\"view\",\"type\":\"function\",\"constant\":true},{\"inputs\":[{\"internalType\":\"uint256\",\"name\":\"\",\"type\":\"uint256\"}],\"name\":\"players\",\"outputs\":[{\"internalType\":\"address\",\"name\":\"account\",\"type\":\"address\"},{\"internalType\":\"uint256\",\"name\":\"price\",\"type\":\"uint256\"},{\"internalType\":\"uint256\",\"name\":\"selection\",\"type\":\"uint256\"}],\"stateMutability\":\"view\",\"type\":\"function\",\"constant\":true},{\"inputs\":[{\"internalType\":\"uint256\",\"name\":\"selection\",\"type\":\"uint256\"}],\"name\":\"enter\",\"outputs\":[],\"stateMutability\":\"payable\",\"type\":\"function\",\"payable\":true},{\"inputs\":[],\"name\":\"getProfile\",\"outputs\":[{\"internalType\":\"string\",\"name\":\"\",\"type\":\"string\"},{\"internalType\":\"uint256\",\"name\":\"\",\"type\":\"uint256\"},{\"components\":[{\"internalType\":\"uint256\",\"name\":\"id\",\"type\":\"uint256\"},{\"internalType\":\"string\",\"name\":\"name\",\"type\":\"string\"},{\"internalType\":\"uint256\",\"name\":\"count\",\"type\":\"uint256\"}],\"internalType\":\"struct Event.Option[]\",\"name\":\"\",\"type\":\"tuple[]\"},{\"components\":[{\"internalType\":\"address\",\"name\":\"account\",\"type\":\"address\"},{\"internalType\":\"uint256\",\"name\":\"price\",\"type\":\"uint256\"},{\"internalType\":\"uint256\",\"name\":\"selection\",\"type\":\"uint256\"}],\"internalType\":\"struct Event.Player[]\",\"name\":\"\",\"type\":\"tuple[]\"}],\"stateMutability\":\"view\",\"type\":\"function\",\"constant\":true},{\"inputs\":[{\"internalType\":\"uint256\",\"name\":\"selection\",\"type\":\"uint256\"}],\"name\":\"getWinnerCount\",\"outputs\":[{\"internalType\":\"uint256\",\"name\":\"\",\"type\":\"uint256\"}],\"stateMutability\":\"view\",\"type\":\"function\",\"constant\":true},{\"inputs\":[{\"internalType\":\"uint256\",\"name\":\"selection\",\"type\":\"uint256\"}],\"name\":\"endEvent\",\"outputs\":[],\"stateMutability\":\"nonpayable\",\"type\":\"function\"},{\"inputs\":[],\"name\":\"withdraw\",\"outputs\":[],\"stateMutability\":\"nonpayable\",\"type\":\"function\"},{\"inputs\":[],\"name\":\"getTotalPrice\",\"outputs\":[{\"internalType\":\"uint256\",\"name\":\"\",\"type\":\"uint256\"}],\"stateMutability\":\"view\",\"type\":\"function\",\"constant\":true}]')\n",
    "contract = web3.eth.contract(address=contract_address, abi='[{\"inputs\":[{\"internalType\":\"string\",\"name\":\"name\",\"type\":\"string\"},{\"internalType\":\"string[]\",\"name\":\"optionNames\",\"type\":\"string[]\"},{\"internalType\":\"uint256\",\"name\":\"due\",\"type\":\"uint256\"}],\"stateMutability\":\"nonpayable\",\"type\":\"constructor\"},{\"inputs\":[],\"name\":\"dueDate\",\"outputs\":[{\"internalType\":\"uint256\",\"name\":\"\",\"type\":\"uint256\"}],\"stateMutability\":\"view\",\"type\":\"function\",\"constant\":true},{\"inputs\":[],\"name\":\"eventName\",\"outputs\":[{\"internalType\":\"string\",\"name\":\"\",\"type\":\"string\"}],\"stateMutability\":\"view\",\"type\":\"function\",\"constant\":true},{\"inputs\":[],\"name\":\"manager\",\"outputs\":[{\"internalType\":\"address\",\"name\":\"\",\"type\":\"address\"}],\"stateMutability\":\"view\",\"type\":\"function\",\"constant\":true},{\"inputs\":[{\"internalType\":\"uint256\",\"name\":\"\",\"type\":\"uint256\"}],\"name\":\"options\",\"outputs\":[{\"internalType\":\"uint256\",\"name\":\"id\",\"type\":\"uint256\"},{\"internalType\":\"string\",\"name\":\"name\",\"type\":\"string\"},{\"internalType\":\"uint256\",\"name\":\"count\",\"type\":\"uint256\"}],\"stateMutability\":\"view\",\"type\":\"function\",\"constant\":true},{\"inputs\":[{\"internalType\":\"uint256\",\"name\":\"\",\"type\":\"uint256\"}],\"name\":\"players\",\"outputs\":[{\"internalType\":\"address\",\"name\":\"account\",\"type\":\"address\"},{\"internalType\":\"uint256\",\"name\":\"price\",\"type\":\"uint256\"},{\"internalType\":\"uint256\",\"name\":\"selection\",\"type\":\"uint256\"}],\"stateMutability\":\"view\",\"type\":\"function\",\"constant\":true},{\"inputs\":[{\"internalType\":\"uint256\",\"name\":\"selection\",\"type\":\"uint256\"}],\"name\":\"enter\",\"outputs\":[],\"stateMutability\":\"payable\",\"type\":\"function\",\"payable\":true},{\"inputs\":[],\"name\":\"getProfile\",\"outputs\":[{\"internalType\":\"string\",\"name\":\"\",\"type\":\"string\"},{\"internalType\":\"uint256\",\"name\":\"\",\"type\":\"uint256\"},{\"components\":[{\"internalType\":\"uint256\",\"name\":\"id\",\"type\":\"uint256\"},{\"internalType\":\"string\",\"name\":\"name\",\"type\":\"string\"},{\"internalType\":\"uint256\",\"name\":\"count\",\"type\":\"uint256\"}],\"internalType\":\"struct Event.Option[]\",\"name\":\"\",\"type\":\"tuple[]\"},{\"components\":[{\"internalType\":\"address\",\"name\":\"account\",\"type\":\"address\"},{\"internalType\":\"uint256\",\"name\":\"price\",\"type\":\"uint256\"},{\"internalType\":\"uint256\",\"name\":\"selection\",\"type\":\"uint256\"}],\"internalType\":\"struct Event.Player[]\",\"name\":\"\",\"type\":\"tuple[]\"}],\"stateMutability\":\"view\",\"type\":\"function\",\"constant\":true},{\"inputs\":[{\"internalType\":\"uint256\",\"name\":\"selection\",\"type\":\"uint256\"}],\"name\":\"getWinnerCount\",\"outputs\":[{\"internalType\":\"uint256\",\"name\":\"\",\"type\":\"uint256\"}],\"stateMutability\":\"view\",\"type\":\"function\",\"constant\":true},{\"inputs\":[{\"internalType\":\"uint256\",\"name\":\"selection\",\"type\":\"uint256\"}],\"name\":\"endEvent\",\"outputs\":[],\"stateMutability\":\"nonpayable\",\"type\":\"function\"},{\"inputs\":[],\"name\":\"withdraw\",\"outputs\":[],\"stateMutability\":\"nonpayable\",\"type\":\"function\"},{\"inputs\":[],\"name\":\"getTotalPrice\",\"outputs\":[{\"internalType\":\"uint256\",\"name\":\"\",\"type\":\"uint256\"}],\"stateMutability\":\"view\",\"type\":\"function\",\"constant\":true}]')\n",
    "# print(contract)\n",
    "\n",
    "# for func in contract.all_functions():\n",
    "#    print('contract functions: %s', func)\n"
   ]
  },
  {
   "cell_type": "code",
   "execution_count": 909,
   "metadata": {},
   "outputs": [
    {
     "data": {
      "text/plain": [
       "['custom2',\n",
       " 1711435654,\n",
       " [(0, 'x', 1), (1, 'y', 0), (2, 'z', 0)],\n",
       " [('0x65feE7Fa1d6356A288Fe1722B87C3EA1B567F14c', 1000000000000000000, 0)]]"
      ]
     },
     "execution_count": 909,
     "metadata": {},
     "output_type": "execute_result"
    }
   ],
   "source": [
    "contract.functions.getProfile().call()"
   ]
  },
  {
   "cell_type": "code",
   "execution_count": 893,
   "metadata": {},
   "outputs": [
    {
     "name": "stdout",
     "output_type": "stream",
     "text": [
      "{'from': '0x65feE7Fa1d6356A288Fe1722B87C3EA1B567F14c', 'value': 1000000000000000000, 'nonce': 88, 'gas': 200000, 'maxFeePerGas': 2000000000, 'maxPriorityFeePerGas': 1000000000}\n"
     ]
    }
   ],
   "source": [
    "# print(web3.eth.chain_id)\n",
    "# print(web3.eth.get_transaction_count('0x1B5eE6f9Dc400Fb219cD9193FCdB75b7adec2288'))\n",
    "# print(web3.eth.gas_price)\n",
    "transaction = {\n",
    "   'from': wallet_address,\n",
    "   'value': web3.to_wei(1, 'ether'),\n",
    "   'nonce': web3.eth.get_transaction_count(wallet_address),\n",
    "   'gas': 200000,\n",
    "   'maxFeePerGas': 2000000000,\n",
    "   'maxPriorityFeePerGas': 1000000000,\n",
    "}\n",
    "print(transaction)"
   ]
  },
  {
   "cell_type": "code",
   "execution_count": 894,
   "metadata": {},
   "outputs": [],
   "source": [
    "pre_trans = contract.functions.enter(0).build_transaction(transaction)"
   ]
  },
  {
   "cell_type": "code",
   "execution_count": 895,
   "metadata": {},
   "outputs": [
    {
     "name": "stdout",
     "output_type": "stream",
     "text": [
      "SignedTransaction(rawTransaction=HexBytes('0x02f89982053958843b9aca00847735940083030d4094dc66303738df531b4ee05bb6f3b716a2501c9a6b880de0b6b3a7640000a4a59f3e0c0000000000000000000000000000000000000000000000000000000000000000c080a09e1ccfae8a99a9219549a8bdb83497f0ec9ba4383896a8aca7673690b6fa6a50a0506395f837f675bc369b820e98d9d9b5209dd96b1ecc4f023c24a8fb8ce236ed'), hash=HexBytes('0x086391d599082aa63dd7ba20ddfaf993f2f4a0f987c36dddbef12b40aa81a54b'), r=71516335161090698438041662353003968137846904422597793403711157560184189643344, s=36360980798240380131088850976336389523789511949289960281519586645042836682477, v=0)\n"
     ]
    }
   ],
   "source": [
    "signed_tx = web3.eth.account.sign_transaction(pre_trans, private_key=wallet_secret_key)\n",
    "\n",
    "print(signed_tx)\n"
   ]
  },
  {
   "cell_type": "code",
   "execution_count": 896,
   "metadata": {},
   "outputs": [
    {
     "name": "stdout",
     "output_type": "stream",
     "text": [
      "b'\\x02\\xf8\\x99\\x82\\x059X\\x84;\\x9a\\xca\\x00\\x84w5\\x94\\x00\\x83\\x03\\r@\\x94\\xdcf078\\xdfS\\x1bN\\xe0[\\xb6\\xf3\\xb7\\x16\\xa2P\\x1c\\x9ak\\x88\\r\\xe0\\xb6\\xb3\\xa7d\\x00\\x00\\xa4\\xa5\\x9f>\\x0c\\x00\\x00\\x00\\x00\\x00\\x00\\x00\\x00\\x00\\x00\\x00\\x00\\x00\\x00\\x00\\x00\\x00\\x00\\x00\\x00\\x00\\x00\\x00\\x00\\x00\\x00\\x00\\x00\\x00\\x00\\x00\\x00\\xc0\\x80\\xa0\\x9e\\x1c\\xcf\\xae\\x8a\\x99\\xa9!\\x95I\\xa8\\xbd\\xb84\\x97\\xf0\\xec\\x9b\\xa488\\x96\\xa8\\xac\\xa7g6\\x90\\xb6\\xfajP\\xa0Pc\\x95\\xf87\\xf6u\\xbc6\\x9b\\x82\\x0e\\x98\\xd9\\xd9\\xb5 \\x9d\\xd9k\\x1e\\xccO\\x02<$\\xa8\\xfb\\x8c\\xe26\\xed'\n"
     ]
    }
   ],
   "source": [
    "print(signed_tx.rawTransaction)\n",
    "tx_hash = web3.eth.send_raw_transaction(signed_tx.rawTransaction)"
   ]
  },
  {
   "cell_type": "code",
   "execution_count": null,
   "metadata": {},
   "outputs": [],
   "source": [
    "contract.functions.getWinnerCount(2).call()"
   ]
  },
  {
   "cell_type": "code",
   "execution_count": 910,
   "metadata": {},
   "outputs": [
    {
     "data": {
      "text/plain": [
       "1000000000000000000"
      ]
     },
     "execution_count": 910,
     "metadata": {},
     "output_type": "execute_result"
    }
   ],
   "source": [
    "contract.functions.getTotalPrice().call()"
   ]
  },
  {
   "cell_type": "code",
   "execution_count": null,
   "metadata": {},
   "outputs": [],
   "source": [
    "end_transaction = {\n",
    "   'from': wallet_address,\n",
    "   'nonce': web3.eth.get_transaction_count(wallet_address),\n",
    "   'gas': 253000\n",
    "}\n",
    "\n",
    "web3.eth.estimate_gas(end_transaction)"
   ]
  },
  {
   "cell_type": "code",
   "execution_count": null,
   "metadata": {},
   "outputs": [],
   "source": [
    "# end event\n",
    "# build\n",
    "end_trans = contract.functions.endEvent(2).build_transaction(end_transaction)\n",
    "# sign\n",
    "end_signed_tx = web3.eth.account.sign_transaction(end_trans, private_key=wallet_secret_key)\n",
    "# send transaction\n",
    "tx_hash = web3.eth.send_raw_transaction(end_signed_tx.rawTransaction)"
   ]
  },
  {
   "cell_type": "markdown",
   "metadata": {},
   "source": [
    "Deploy Contract"
   ]
  },
  {
   "cell_type": "code",
   "execution_count": 727,
   "metadata": {},
   "outputs": [],
   "source": [
    "with open(\"../contract/contracts/Event.sol\", \"r\") as file:\n",
    "    contract_data = file.read()\n",
    "\n",
    "# print(contract_data)"
   ]
  },
  {
   "cell_type": "code",
   "execution_count": 790,
   "metadata": {},
   "outputs": [],
   "source": [
    "# from solcx import compile_source\n",
    "# compiled = compile_source(contract_data,\n",
    "#     output_values=['abi', 'bin']\n",
    "# )\n",
    "# contract_id, contract_interface = compiled.popitem()\n",
    "\n",
    "from solcx import compile_standard, install_solc\n",
    "\n",
    "install_solc('0.8.19')\n",
    "\n",
    "compiled_sol = compile_standard(\n",
    "    {\n",
    "        \"language\": \"Solidity\",\n",
    "        \"sources\": {\"Event.sol\": {\"content\": contract_data}},\n",
    "        \"settings\": {\n",
    "            \"outputSelection\": {\n",
    "                \"*\": {\n",
    "                    \"*\": [\"abi\", \"metadata\", \"evm.bytecode\", \"evm.bytecode.sourceMap\"] # output needed to interact with and deploy contract \n",
    "                }\n",
    "            }\n",
    "        }\n",
    "    },\n",
    "    solc_version=\"0.8.19\"\n",
    ")\n",
    "# print(compiled_sol)\n",
    "# with open(\"../contract/build/contracts/compiled_code.json\", \"w\") as file:\n",
    "#     json.dump(compiled_sol, file)\n",
    "\n",
    "bytecode = compiled_sol[\"contracts\"][\"Event.sol\"][\"Event\"][\"evm\"][\"bytecode\"][\"object\"]\n",
    "abi = compiled_sol[\"contracts\"][\"Event.sol\"][\"Event\"][\"abi\"]\n",
    "# print(compiled_sol[\"contracts\"][\"Event.sol\"][\"Event\"][\"abi\"])"
   ]
  },
  {
   "cell_type": "code",
   "execution_count": 729,
   "metadata": {},
   "outputs": [
    {
     "name": "stdout",
     "output_type": "stream",
     "text": [
      "<stdin>:Event\n"
     ]
    }
   ],
   "source": [
    "# print(contract_id)\n",
    "\n",
    "# print(contract_interface)\n",
    "# bytecode = contract_interface['bin']\n",
    "# abi = contract_interface['abi']"
   ]
  },
  {
   "cell_type": "code",
   "execution_count": 760,
   "metadata": {},
   "outputs": [],
   "source": [
    "import time\n",
    "now = round(time.time())"
   ]
  },
  {
   "cell_type": "code",
   "execution_count": 795,
   "metadata": {},
   "outputs": [],
   "source": [
    "# web3.eth.default_account = wallet_address\n",
    "\n",
    "deployContract = web3.eth.contract(abi=abi, bytecode= bytecode)\n",
    "\n",
    "transaction = {\n",
    "   'chainId': chainId,\n",
    "   'from': wallet_address,\n",
    "   'nonce': web3.eth.get_transaction_count(wallet_address),\n",
    "   'gasPrice': web3.eth.gas_price\n",
    "}\n",
    "\n",
    "tx_builded = deployContract.constructor('custom2', ['x', 'y', 'z'], 1711435654).build_transaction(transaction)\n",
    "# transaction"
   ]
  },
  {
   "cell_type": "code",
   "execution_count": 796,
   "metadata": {},
   "outputs": [],
   "source": [
    "signed_build = web3.eth.account.sign_transaction(tx_builded, private_key=wallet_secret_key)"
   ]
  },
  {
   "cell_type": "code",
   "execution_count": 797,
   "metadata": {},
   "outputs": [],
   "source": [
    "tx_hash = web3.eth.send_raw_transaction(signed_build.rawTransaction)"
   ]
  },
  {
   "cell_type": "code",
   "execution_count": 798,
   "metadata": {},
   "outputs": [
    {
     "name": "stdout",
     "output_type": "stream",
     "text": [
      "Done! Contract deployed to 0xdc66303738dF531B4Ee05BB6f3b716A2501C9A6B\n"
     ]
    }
   ],
   "source": [
    "transaction_receipt = web3.eth.wait_for_transaction_receipt(tx_hash)\n",
    "print(f\"Done! Contract deployed to {transaction_receipt.contractAddress}\")"
   ]
  }
 ],
 "metadata": {
  "kernelspec": {
   "display_name": "Python 3",
   "language": "python",
   "name": "python3"
  },
  "language_info": {
   "codemirror_mode": {
    "name": "ipython",
    "version": 3
   },
   "file_extension": ".py",
   "mimetype": "text/x-python",
   "name": "python",
   "nbconvert_exporter": "python",
   "pygments_lexer": "ipython3",
   "version": "3.10.13"
  }
 },
 "nbformat": 4,
 "nbformat_minor": 2
}
